:020000040000FA
:1000000050040020A1010000A9010000AB01000084
:1000100000000000000000000000000000000000E0
:10002000000000000000000000000000AD01000022
:100030000000000000000000AF010000B10100005E
:10004000B3010000B3010000B3010000B3010000E0
:10005000B3010000B3010000B3010000B3010000D0
:10006000B3010000B3010000B30100000000000074
:10007000B3010000B3010000B3010000B3010000B0
:10008000B3010000B3010000B3010000B3010000A0
:10009000B3010000B3010000B3010000B301000090
:1000A000B3010000B3010000B3010000B301000080
:1000B000B3010000B3010000B3010000B301000070
:1000C00000F002F800F040F80CA030C808382418FE
:1000D0002D18A246671EAB4654465D46AC4201D180
:1000E00000F032F87E460F3E0FCCB6460126334272
:1000F00000D0FB1AA246AB46334318474803000022
:1001000068030000103A02D378C878C1FAD85207C1
:1001100001D330C830C101D504680C6070470000BD
:100120000023002400250026103A01D378C1FBD813
:10013000520700D330C100D50B6070471FB500F0E7
:1001400061F81FBD10B510BD00F014F91146FFF79E
:10015000F5FF00F061F900F02CF903B4FFF7F2FFAE
:1001600003BC00F033F9000030B40C490C684A6855
:1001700023681068C0181060241D121D8C4207D21D
:100180008A4208D20C604A6030BC40004008704788
:100190000C00DC3CF6E70A00DC3AF3E7E400002060
:1001A0000748804707480047FEE7FEE7FEE7FEE70F
:1001B000FEE7FEE704480549054A064B7047000084
:1001C00009040000C100000050010020500400207C
:1001D00050020020500200200B4A30B511460B4C53
:1001E00060310B46DC3B0CC1372106E0020C8D0070
:1001F00012185A51064A504300190A46491E002A4D
:10020000F4DC30BD0120E7E784000020E119D66668
:10021000CD0D0100002203098B422CD3030A8B422F
:1002200011D300239C464EE003460B433CD40022EE
:1002300043088B4231D303098B421CD3030A8B4200
:1002400001D394463FE0C3098B4201D3CB01C01ACE
:10025000524183098B4201D38B01C01A5241430999
:100260008B4201D34B01C01A524103098B4201D387
:100270000B01C01A5241C3088B4201D3CB00C01AF4
:10028000524183088B4201D38B00C01A524143086C
:100290008B4201D34B00C01A5241411A00D2014691
:1002A0005241104670475DE0CA0F00D0494203102A
:1002B00000D34042534000229C4603098B422DD379
:1002C000030A8B4212D3FC22890112BA030A8B4221
:1002D0000CD3890192118B4208D3890192118B4270
:1002E00004D389013AD0921100E08909C3098B42F5
:1002F00001D3CB01C01A524183098B4201D38B0138
:10030000C01A524143098B4201D34B01C01A5241DA
:1003100003098B4201D30B01C01A5241C3088B421F
:1003200001D3CB00C01A524183088B4201D38B000A
:10033000C01A5241D9D243088B4201D34B00C01A94
:100340005241411A00D20146634652415B101046A9
:1003500001D34042002B00D54942704763465B10F1
:1003600000D3404201B50020C046C04602BD7047E0
:1003700070477047754600F025F8AE46050069469F
:100380005346C008C000854618B020B5FFF712FFDD
:1003900060BC00274908B6460026C0C5C0C5C0C518
:1003A000C0C5C0C5C0C5C0C5C0C5403D49008D461B
:1003B000704710B50446C046C0462046FFF7CDFE44
:1003C00010BD000000487047EC00002001491820D3
:1003D000ABBEFEE726000200704730B502460023A0
:1003E0000DE0002006E0145C451C555D1554451CCD
:1003F0005455401CCD1A6D1E8542F4DC5B1C4D1E0D
:100400009D42EEDC30BD00000148024908607047A3
:1004100000E1F5050400002070B501256D070024FA
:1004200007E0FFF7A1FE06463221FFF7FDFE295542
:10043000641C0A2CF5DB0A212846FFF7CEFF0020BA
:1004400070BD0000640400000000002008000000EF
:10045000040100006C0400000800002048040000B3
:0C0460002001000000E1F50500E1F505B9
:04000005000001A155
:00000001FF
