:020000040000FA
:1000000068030020650100006D0100006F01000021
:1000100000000000000000000000000000000000E0
:10002000000000000000000000000000710100005E
:1000300000000000000000007301000075010000D6
:1000400077010000770100007701000077010000D0
:1000500077010000770100007701000077010000C0
:100060007701000077010000770100000000000028
:1000700077010000770100007701000077010000A0
:100080007701000077010000770100007701000090
:100090007701000077010000770100007701000080
:1000A0007701000077010000770100007701000070
:1000B0007701000077010000770100007701000060
:1000C00000F002F800F03EF80CA030C80838241800
:1000D0002D18A246671EAB4654465D46AC4201D180
:1000E00000F030F87E460F3E0FCCB6460126334274
:1000F00000D0FB1AA246AB4633431847D801000094
:10010000F8010000103A02D378C878C1FAD8520733
:1001100001D330C830C101D504680C6070470000BD
:100120000023002400250026103A01D378C1FBD813
:10013000520700D330C100D50B6070471FB51FBDFB
:1001400010B510BD00F02DF81146FFF7F7FF00F0D5
:1001500063F800F045F803B4FFF7F2FF03BC00F0CA
:100160004BF800000748804707480047FEE7FEE7D6
:10017000FEE7FEE7FEE7FEE704480549054A064BB1
:100180007047000009020000C10000006800002064
:100190006803002068010020680100207047704754
:1001A0007047754600F024F8AE4605006946534690
:1001B000C008C000854618B020B5FFF7DDFF60BC61
:1001C00000274908B6460026C0C5C0C5C0C5C0C581
:1001D000C0C5C0C5C0C5C0C5403D49008D467047BB
:1001E00010B50446C046C0462046FFF7B4FF10BD18
:1001F000004870470800002001491820ABBEFEE708
:10020000260002007047000001480249086070475C
:1002100000E1F50504000020F0B588B001235B077C
:10022000224D6A682968A868ED68079505920491CF
:1002300006901E4D10356A682968A868ED68039518
:10024000019200910290D81419494860002008607A
:100250000120886000201EE0002119E000228500B6
:100260006D185A5500BF10E0850004AEAD19AD5CA5
:1002700096006F46F619765C7543860076189E5D8B
:10028000AD19860076189D55521C042AECDB491CDA
:100290000429E3DB401C0428DEDB002004498860DD
:1002A00008460468002008B0F0BD0000B402000059
:1002B00000000120000102030102030402030405FF
:1002C00003040506090807060504030201000102EC
:1002D00003040506F40200000000002008000000EE
:1002E00004010000FC020000080000206003000080
:0C02F0002001000000E1F50500E1F5052B
:040000050000016591
:00000001FF
